{
  "address": "0xae66a0789F47feA8CCe23Edbe39Eb0080af3fab5",
  "abi": [
    {
      "inputs": [],
      "stateMutability": "nonpayable",
      "type": "constructor"
    },
    {
      "anonymous": false,
      "inputs": [
        {
          "indexed": true,
          "internalType": "address",
          "name": "owner",
          "type": "address"
        },
        {
          "indexed": true,
          "internalType": "address",
          "name": "approved",
          "type": "address"
        },
        {
          "indexed": true,
          "internalType": "uint256",
          "name": "tokenId",
          "type": "uint256"
        }
      ],
      "name": "Approval",
      "type": "event"
    },
    {
      "anonymous": false,
      "inputs": [
        {
          "indexed": true,
          "internalType": "address",
          "name": "owner",
          "type": "address"
        },
        {
          "indexed": true,
          "internalType": "address",
          "name": "operator",
          "type": "address"
        },
        {
          "indexed": false,
          "internalType": "bool",
          "name": "approved",
          "type": "bool"
        }
      ],
      "name": "ApprovalForAll",
      "type": "event"
    },
    {
      "anonymous": false,
      "inputs": [
        {
          "indexed": true,
          "internalType": "uint256",
          "name": "tokinId",
          "type": "uint256"
        },
        {
          "indexed": false,
          "internalType": "string",
          "name": "tokenURI",
          "type": "string"
        }
      ],
      "name": "CreatedSVGNFT",
      "type": "event"
    },
    {
      "anonymous": false,
      "inputs": [
        {
          "indexed": true,
          "internalType": "address",
          "name": "from",
          "type": "address"
        },
        {
          "indexed": true,
          "internalType": "address",
          "name": "to",
          "type": "address"
        },
        {
          "indexed": true,
          "internalType": "uint256",
          "name": "tokenId",
          "type": "uint256"
        }
      ],
      "name": "Transfer",
      "type": "event"
    },
    {
      "inputs": [
        {
          "internalType": "address",
          "name": "to",
          "type": "address"
        },
        {
          "internalType": "uint256",
          "name": "tokenId",
          "type": "uint256"
        }
      ],
      "name": "approve",
      "outputs": [],
      "stateMutability": "nonpayable",
      "type": "function"
    },
    {
      "inputs": [
        {
          "internalType": "address",
          "name": "owner",
          "type": "address"
        }
      ],
      "name": "balanceOf",
      "outputs": [
        {
          "internalType": "uint256",
          "name": "",
          "type": "uint256"
        }
      ],
      "stateMutability": "view",
      "type": "function"
    },
    {
      "inputs": [
        {
          "internalType": "string",
          "name": "_svg",
          "type": "string"
        }
      ],
      "name": "create",
      "outputs": [],
      "stateMutability": "nonpayable",
      "type": "function"
    },
    {
      "inputs": [
        {
          "internalType": "string",
          "name": "_imageURI",
          "type": "string"
        }
      ],
      "name": "formatTokenURI",
      "outputs": [
        {
          "internalType": "string",
          "name": "",
          "type": "string"
        }
      ],
      "stateMutability": "pure",
      "type": "function"
    },
    {
      "inputs": [
        {
          "internalType": "uint256",
          "name": "tokenId",
          "type": "uint256"
        }
      ],
      "name": "getApproved",
      "outputs": [
        {
          "internalType": "address",
          "name": "",
          "type": "address"
        }
      ],
      "stateMutability": "view",
      "type": "function"
    },
    {
      "inputs": [
        {
          "internalType": "address",
          "name": "owner",
          "type": "address"
        },
        {
          "internalType": "address",
          "name": "operator",
          "type": "address"
        }
      ],
      "name": "isApprovedForAll",
      "outputs": [
        {
          "internalType": "bool",
          "name": "",
          "type": "bool"
        }
      ],
      "stateMutability": "view",
      "type": "function"
    },
    {
      "inputs": [],
      "name": "name",
      "outputs": [
        {
          "internalType": "string",
          "name": "",
          "type": "string"
        }
      ],
      "stateMutability": "view",
      "type": "function"
    },
    {
      "inputs": [
        {
          "internalType": "uint256",
          "name": "tokenId",
          "type": "uint256"
        }
      ],
      "name": "ownerOf",
      "outputs": [
        {
          "internalType": "address",
          "name": "",
          "type": "address"
        }
      ],
      "stateMutability": "view",
      "type": "function"
    },
    {
      "inputs": [
        {
          "internalType": "address",
          "name": "from",
          "type": "address"
        },
        {
          "internalType": "address",
          "name": "to",
          "type": "address"
        },
        {
          "internalType": "uint256",
          "name": "tokenId",
          "type": "uint256"
        }
      ],
      "name": "safeTransferFrom",
      "outputs": [],
      "stateMutability": "nonpayable",
      "type": "function"
    },
    {
      "inputs": [
        {
          "internalType": "address",
          "name": "from",
          "type": "address"
        },
        {
          "internalType": "address",
          "name": "to",
          "type": "address"
        },
        {
          "internalType": "uint256",
          "name": "tokenId",
          "type": "uint256"
        },
        {
          "internalType": "bytes",
          "name": "data",
          "type": "bytes"
        }
      ],
      "name": "safeTransferFrom",
      "outputs": [],
      "stateMutability": "nonpayable",
      "type": "function"
    },
    {
      "inputs": [
        {
          "internalType": "address",
          "name": "operator",
          "type": "address"
        },
        {
          "internalType": "bool",
          "name": "approved",
          "type": "bool"
        }
      ],
      "name": "setApprovalForAll",
      "outputs": [],
      "stateMutability": "nonpayable",
      "type": "function"
    },
    {
      "inputs": [
        {
          "internalType": "bytes4",
          "name": "interfaceId",
          "type": "bytes4"
        }
      ],
      "name": "supportsInterface",
      "outputs": [
        {
          "internalType": "bool",
          "name": "",
          "type": "bool"
        }
      ],
      "stateMutability": "view",
      "type": "function"
    },
    {
      "inputs": [
        {
          "internalType": "string",
          "name": "_svg",
          "type": "string"
        }
      ],
      "name": "svgToImageURI",
      "outputs": [
        {
          "internalType": "string",
          "name": "",
          "type": "string"
        }
      ],
      "stateMutability": "pure",
      "type": "function"
    },
    {
      "inputs": [],
      "name": "symbol",
      "outputs": [
        {
          "internalType": "string",
          "name": "",
          "type": "string"
        }
      ],
      "stateMutability": "view",
      "type": "function"
    },
    {
      "inputs": [],
      "name": "tokenCounter",
      "outputs": [
        {
          "internalType": "uint256",
          "name": "",
          "type": "uint256"
        }
      ],
      "stateMutability": "view",
      "type": "function"
    },
    {
      "inputs": [
        {
          "internalType": "uint256",
          "name": "tokenId",
          "type": "uint256"
        }
      ],
      "name": "tokenURI",
      "outputs": [
        {
          "internalType": "string",
          "name": "",
          "type": "string"
        }
      ],
      "stateMutability": "view",
      "type": "function"
    },
    {
      "inputs": [
        {
          "internalType": "address",
          "name": "from",
          "type": "address"
        },
        {
          "internalType": "address",
          "name": "to",
          "type": "address"
        },
        {
          "internalType": "uint256",
          "name": "tokenId",
          "type": "uint256"
        }
      ],
      "name": "transferFrom",
      "outputs": [],
      "stateMutability": "nonpayable",
      "type": "function"
    }
  ],
  "transactionHash": "0x970ee684cb022d67bd7590931323226ccb1fa80654c181b3cacd62aa1d2f9cdd",
  "args": [],
  "numDeployments": 1,
  "solcInputHash": "f06b1458bbd44e95bd42783326338d9d",
  "bytecode": "0x60806040523480156200001157600080fd5b506040518060400160405280600781526020017f535647204e4654000000000000000000000000000000000000000000000000008152506040518060400160405280600681526020017f7376674e46540000000000000000000000000000000000000000000000000000815250816000908051906020019062000096929190620000c0565b508060019080519060200190620000af929190620000c0565b5050506000600781905550620001d5565b828054620000ce9062000170565b90600052602060002090601f016020900481019282620000f257600085556200013e565b82601f106200010d57805160ff19168380011785556200013e565b828001600101855582156200013e579182015b828111156200013d57825182559160200191906001019062000120565b5b5090506200014d919062000151565b5090565b5b808211156200016c57600081600090555060010162000152565b5090565b600060028204905060018216806200018957607f821691505b60208210811415620001a0576200019f620001a6565b5b50919050565b7f4e487b7100000000000000000000000000000000000000000000000000000000600052602260045260246000fd5b612ef880620001e56000396000f3fe608060405234801561001057600080fd5b506004361061010b5760003560e01c806370a08231116100a2578063b6a46b3b11610071578063b6a46b3b146102dc578063b88d4fde146102f8578063c87b56dd14610314578063d082e38114610344578063e985e9c5146103625761010b565b806370a082311461024257806371aee1931461027257806395d89b41146102a2578063a22cb465146102c05761010b565b806323b872dd116100de57806323b872dd146101aa57806330d871c6146101c657806342842e0e146101f65780636352211e146102125761010b565b806301ffc9a71461011057806306fdde0314610140578063081812fc1461015e578063095ea7b31461018e575b600080fd5b61012a60048036038101906101259190611ef4565b610392565b60405161013791906123da565b60405180910390f35b610148610474565b60405161015591906123f5565b60405180910390f35b61017860048036038101906101739190611f87565b610506565b6040516101859190612373565b60405180910390f35b6101a860048036038101906101a39190611eb8565b61054c565b005b6101c460048036038101906101bf9190611db2565b610664565b005b6101e060048036038101906101db9190611f46565b6106c4565b6040516101ed91906123f5565b60405180910390f35b610210600480360381019061020b9190611db2565b61075d565b005b61022c60048036038101906102279190611f87565b61077d565b6040516102399190612373565b60405180910390f35b61025c60048036038101906102579190611d4d565b61082f565b6040516102699190612597565b60405180910390f35b61028c60048036038101906102879190611f46565b6108e7565b60405161029991906123f5565b60405180910390f35b6102aa610937565b6040516102b791906123f5565b60405180910390f35b6102da60048036038101906102d59190611e7c565b6109c9565b005b6102f660048036038101906102f19190611f46565b6109df565b005b610312600480360381019061030d9190611e01565b610a65565b005b61032e60048036038101906103299190611f87565b610ac7565b60405161033b91906123f5565b60405180910390f35b61034c610bda565b6040516103599190612597565b60405180910390f35b61037c60048036038101906103779190611d76565b610be0565b60405161038991906123da565b60405180910390f35b60007f80ac58cd000000000000000000000000000000000000000000000000000000007bffffffffffffffffffffffffffffffffffffffffffffffffffffffff1916827bffffffffffffffffffffffffffffffffffffffffffffffffffffffff1916148061045d57507f5b5e139f000000000000000000000000000000000000000000000000000000007bffffffffffffffffffffffffffffffffffffffffffffffffffffffff1916827bffffffffffffffffffffffffffffffffffffffffffffffffffffffff1916145b8061046d575061046c82610c74565b5b9050919050565b60606000805461048390612847565b80601f01602080910402602001604051908101604052809291908181526020018280546104af90612847565b80156104fc5780601f106104d1576101008083540402835291602001916104fc565b820191906000526020600020905b8154815290600101906020018083116104df57829003601f168201915b5050505050905090565b600061051182610cde565b6004600083815260200190815260200160002060009054906101000a900473ffffffffffffffffffffffffffffffffffffffff169050919050565b60006105578261077d565b90508073ffffffffffffffffffffffffffffffffffffffff168373ffffffffffffffffffffffffffffffffffffffff1614156105c8576040517f08c379a00000000000000000000000000000000000000000000000000000000081526004016105bf90612557565b60405180910390fd5b8073ffffffffffffffffffffffffffffffffffffffff166105e7610d29565b73ffffffffffffffffffffffffffffffffffffffff161480610616575061061581610610610d29565b610be0565b5b610655576040517f08c379a000000000000000000000000000000000000000000000000000000000815260040161064c906124f7565b60405180910390fd5b61065f8383610d31565b505050565b61067561066f610d29565b82610dea565b6106b4576040517f08c379a00000000000000000000000000000000000000000000000000000000081526004016106ab90612577565b60405180910390fd5b6106bf838383610e7f565b505050565b606060006040518060400160405280601a81526020017f646174613a696d6167652f7376672b786d6c3b6261736536342c0000000000008152509050600061072a8460405160200161071691906122d3565b6040516020818303038152906040526110e6565b9050600082826040516020016107419291906122ea565b6040516020818303038152906040529050809350505050919050565b61077883838360405180602001604052806000815250610a65565b505050565b6000806002600084815260200190815260200160002060009054906101000a900473ffffffffffffffffffffffffffffffffffffffff169050600073ffffffffffffffffffffffffffffffffffffffff168173ffffffffffffffffffffffffffffffffffffffff161415610826576040517f08c379a000000000000000000000000000000000000000000000000000000000815260040161081d90612537565b60405180910390fd5b80915050919050565b60008073ffffffffffffffffffffffffffffffffffffffff168273ffffffffffffffffffffffffffffffffffffffff1614156108a0576040517f08c379a0000000000000000000000000000000000000000000000000000000008152600401610897906124b7565b60405180910390fd5b600360008373ffffffffffffffffffffffffffffffffffffffff1673ffffffffffffffffffffffffffffffffffffffff168152602001908152602001600020549050919050565b6060610911826040516020016108fd919061230e565b6040516020818303038152906040526110e6565b6040516020016109219190612351565b6040516020818303038152906040529050919050565b60606001805461094690612847565b80601f016020809104026020016040519081016040528092919081815260200182805461097290612847565b80156109bf5780601f10610994576101008083540402835291602001916109bf565b820191906000526020600020905b8154815290600101906020018083116109a257829003601f168201915b5050505050905090565b6109db6109d4610d29565b8383611285565b5050565b6109eb336007546113f2565b60006109f6826106c4565b90506000610a03826108e7565b9050610a1160075482611410565b6007547ff5acc616aa8ecd00e5d76674d7812f9c3c3571d662c9fba4499deefa6d0be12d82604051610a4391906123f5565b60405180910390a26001600754610a5a919061267c565b600781905550505050565b610a76610a70610d29565b83610dea565b610ab5576040517f08c379a0000000000000000000000000000000000000000000000000000000008152600401610aac90612577565b60405180910390fd5b610ac184848484611484565b50505050565b6060610ad282610cde565b6000600660008481526020019081526020016000208054610af290612847565b80601f0160208091040260200160405190810160405280929190818152602001828054610b1e90612847565b8015610b6b5780601f10610b4057610100808354040283529160200191610b6b565b820191906000526020600020905b815481529060010190602001808311610b4e57829003601f168201915b505050505090506000610b7c6114e0565b9050600081511415610b92578192505050610bd5565b600082511115610bc7578082604051602001610baf9291906122ea565b60405160208183030381529060405292505050610bd5565b610bd0846114f7565b925050505b919050565b60075481565b6000600560008473ffffffffffffffffffffffffffffffffffffffff1673ffffffffffffffffffffffffffffffffffffffff16815260200190815260200160002060008373ffffffffffffffffffffffffffffffffffffffff1673ffffffffffffffffffffffffffffffffffffffff16815260200190815260200160002060009054906101000a900460ff16905092915050565b60007f01ffc9a7000000000000000000000000000000000000000000000000000000007bffffffffffffffffffffffffffffffffffffffffffffffffffffffff1916827bffffffffffffffffffffffffffffffffffffffffffffffffffffffff1916149050919050565b610ce78161155f565b610d26576040517f08c379a0000000000000000000000000000000000000000000000000000000008152600401610d1d90612537565b60405180910390fd5b50565b600033905090565b816004600083815260200190815260200160002060006101000a81548173ffffffffffffffffffffffffffffffffffffffff021916908373ffffffffffffffffffffffffffffffffffffffff160217905550808273ffffffffffffffffffffffffffffffffffffffff16610da48361077d565b73ffffffffffffffffffffffffffffffffffffffff167f8c5be1e5ebec7d5bd14f71427d1e84f3dd0314c0f7b2291e5b200ac8c7c3b92560405160405180910390a45050565b600080610df68361077d565b90508073ffffffffffffffffffffffffffffffffffffffff168473ffffffffffffffffffffffffffffffffffffffff161480610e385750610e378185610be0565b5b80610e7657508373ffffffffffffffffffffffffffffffffffffffff16610e5e84610506565b73ffffffffffffffffffffffffffffffffffffffff16145b91505092915050565b8273ffffffffffffffffffffffffffffffffffffffff16610e9f8261077d565b73ffffffffffffffffffffffffffffffffffffffff1614610ef5576040517f08c379a0000000000000000000000000000000000000000000000000000000008152600401610eec90612437565b60405180910390fd5b600073ffffffffffffffffffffffffffffffffffffffff168273ffffffffffffffffffffffffffffffffffffffff161415610f65576040517f08c379a0000000000000000000000000000000000000000000000000000000008152600401610f5c90612477565b60405180910390fd5b610f708383836115cb565b610f7b600082610d31565b6001600360008573ffffffffffffffffffffffffffffffffffffffff1673ffffffffffffffffffffffffffffffffffffffff1681526020019081526020016000206000828254610fcb919061275d565b925050819055506001600360008473ffffffffffffffffffffffffffffffffffffffff1673ffffffffffffffffffffffffffffffffffffffff1681526020019081526020016000206000828254611022919061267c565b92505081905550816002600083815260200190815260200160002060006101000a81548173ffffffffffffffffffffffffffffffffffffffff021916908373ffffffffffffffffffffffffffffffffffffffff160217905550808273ffffffffffffffffffffffffffffffffffffffff168473ffffffffffffffffffffffffffffffffffffffff167fddf252ad1be2c89b69c2b068fc378daa952ba7f163c4a11628f55a4df523b3ef60405160405180910390a46110e18383836115d0565b505050565b606060008251141561110957604051806020016040528060008152509050611280565b6000604051806060016040528060408152602001612e836040913990506000600360028551611138919061267c565b61114291906126d2565b600461114e9190612703565b9050600060208261115f919061267c565b67ffffffffffffffff81111561119e577f4e487b7100000000000000000000000000000000000000000000000000000000600052604160045260246000fd5b6040519080825280601f01601f1916602001820160405280156111d05781602001600182028036833780820191505090505b509050818152600183018586518101602084015b8183101561123f576003830192508251603f8160121c168501518253600182019150603f81600c1c168501518253600182019150603f8160061c168501518253600182019150603f81168501518253600182019150506111e4565b600389510660018114611259576002811461126957611274565b613d3d60f01b6002830352611274565b603d60f81b60018303525b50505050508093505050505b919050565b8173ffffffffffffffffffffffffffffffffffffffff168373ffffffffffffffffffffffffffffffffffffffff1614156112f4576040517f08c379a00000000000000000000000000000000000000000000000000000000081526004016112eb90612497565b60405180910390fd5b80600560008573ffffffffffffffffffffffffffffffffffffffff1673ffffffffffffffffffffffffffffffffffffffff16815260200190815260200160002060008473ffffffffffffffffffffffffffffffffffffffff1673ffffffffffffffffffffffffffffffffffffffff16815260200190815260200160002060006101000a81548160ff0219169083151502179055508173ffffffffffffffffffffffffffffffffffffffff168373ffffffffffffffffffffffffffffffffffffffff167f17307eab39ab6107e8899845ad3d59bd9653f200f220920489ca2b5937696c31836040516113e591906123da565b60405180910390a3505050565b61140c8282604051806020016040528060008152506115d5565b5050565b6114198261155f565b611458576040517f08c379a000000000000000000000000000000000000000000000000000000000815260040161144f906124d7565b60405180910390fd5b8060066000848152602001908152602001600020908051906020019061147f929190611b71565b505050565b61148f848484610e7f565b61149b84848484611630565b6114da576040517f08c379a00000000000000000000000000000000000000000000000000000000081526004016114d190612417565b60405180910390fd5b50505050565b606060405180602001604052806000815250905090565b606061150282610cde565b600061150c6114e0565b9050600081511161152c5760405180602001604052806000815250611557565b80611536846117c7565b6040516020016115479291906122ea565b6040516020818303038152906040525b915050919050565b60008073ffffffffffffffffffffffffffffffffffffffff166002600084815260200190815260200160002060009054906101000a900473ffffffffffffffffffffffffffffffffffffffff1673ffffffffffffffffffffffffffffffffffffffff1614159050919050565b505050565b505050565b6115df8383611974565b6115ec6000848484611630565b61162b576040517f08c379a000000000000000000000000000000000000000000000000000000000815260040161162290612417565b60405180910390fd5b505050565b60006116518473ffffffffffffffffffffffffffffffffffffffff16611b4e565b156117ba578373ffffffffffffffffffffffffffffffffffffffff1663150b7a0261167a610d29565b8786866040518563ffffffff1660e01b815260040161169c949392919061238e565b602060405180830381600087803b1580156116b657600080fd5b505af19250505080156116e757506040513d601f19601f820116820180604052508101906116e49190611f1d565b60015b61176a573d8060008114611717576040519150601f19603f3d011682016040523d82523d6000602084013e61171c565b606091505b50600081511415611762576040517f08c379a000000000000000000000000000000000000000000000000000000000815260040161175990612417565b60405180910390fd5b805181602001fd5b63150b7a0260e01b7bffffffffffffffffffffffffffffffffffffffffffffffffffffffff1916817bffffffffffffffffffffffffffffffffffffffffffffffffffffffff1916149150506117bf565b600190505b949350505050565b6060600082141561180f576040518060400160405280600181526020017f3000000000000000000000000000000000000000000000000000000000000000815250905061196f565b600082905060005b6000821461184157808061182a906128aa565b915050600a8261183a91906126d2565b9150611817565b60008167ffffffffffffffff811115611883577f4e487b7100000000000000000000000000000000000000000000000000000000600052604160045260246000fd5b6040519080825280601f01601f1916602001820160405280156118b55781602001600182028036833780820191505090505b5090505b60008514611968576001826118ce919061275d565b9150600a856118dd91906128f3565b60306118e9919061267c565b60f81b818381518110611925577f4e487b7100000000000000000000000000000000000000000000000000000000600052603260045260246000fd5b60200101907effffffffffffffffffffffffffffffffffffffffffffffffffffffffffffff1916908160001a905350600a8561196191906126d2565b94506118b9565b8093505050505b919050565b600073ffffffffffffffffffffffffffffffffffffffff168273ffffffffffffffffffffffffffffffffffffffff1614156119e4576040517f08c379a00000000000000000000000000000000000000000000000000000000081526004016119db90612517565b60405180910390fd5b6119ed8161155f565b15611a2d576040517f08c379a0000000000000000000000000000000000000000000000000000000008152600401611a2490612457565b60405180910390fd5b611a39600083836115cb565b6001600360008473ffffffffffffffffffffffffffffffffffffffff1673ffffffffffffffffffffffffffffffffffffffff1681526020019081526020016000206000828254611a89919061267c565b92505081905550816002600083815260200190815260200160002060006101000a81548173ffffffffffffffffffffffffffffffffffffffff021916908373ffffffffffffffffffffffffffffffffffffffff160217905550808273ffffffffffffffffffffffffffffffffffffffff16600073ffffffffffffffffffffffffffffffffffffffff167fddf252ad1be2c89b69c2b068fc378daa952ba7f163c4a11628f55a4df523b3ef60405160405180910390a4611b4a600083836115d0565b5050565b6000808273ffffffffffffffffffffffffffffffffffffffff163b119050919050565b828054611b7d90612847565b90600052602060002090601f016020900481019282611b9f5760008555611be6565b82601f10611bb857805160ff1916838001178555611be6565b82800160010185558215611be6579182015b82811115611be5578251825591602001919060010190611bca565b5b509050611bf39190611bf7565b5090565b5b80821115611c10576000816000905550600101611bf8565b5090565b6000611c27611c22846125d7565b6125b2565b905082815260208101848484011115611c3f57600080fd5b611c4a848285612805565b509392505050565b6000611c65611c6084612608565b6125b2565b905082815260208101848484011115611c7d57600080fd5b611c88848285612805565b509392505050565b600081359050611c9f81612e26565b92915050565b600081359050611cb481612e3d565b92915050565b600081359050611cc981612e54565b92915050565b600081519050611cde81612e54565b92915050565b600082601f830112611cf557600080fd5b8135611d05848260208601611c14565b91505092915050565b600082601f830112611d1f57600080fd5b8135611d2f848260208601611c52565b91505092915050565b600081359050611d4781612e6b565b92915050565b600060208284031215611d5f57600080fd5b6000611d6d84828501611c90565b91505092915050565b60008060408385031215611d8957600080fd5b6000611d9785828601611c90565b9250506020611da885828601611c90565b9150509250929050565b600080600060608486031215611dc757600080fd5b6000611dd586828701611c90565b9350506020611de686828701611c90565b9250506040611df786828701611d38565b9150509250925092565b60008060008060808587031215611e1757600080fd5b6000611e2587828801611c90565b9450506020611e3687828801611c90565b9350506040611e4787828801611d38565b925050606085013567ffffffffffffffff811115611e6457600080fd5b611e7087828801611ce4565b91505092959194509250565b60008060408385031215611e8f57600080fd5b6000611e9d85828601611c90565b9250506020611eae85828601611ca5565b9150509250929050565b60008060408385031215611ecb57600080fd5b6000611ed985828601611c90565b9250506020611eea85828601611d38565b9150509250929050565b600060208284031215611f0657600080fd5b6000611f1484828501611cba565b91505092915050565b600060208284031215611f2f57600080fd5b6000611f3d84828501611ccf565b91505092915050565b600060208284031215611f5857600080fd5b600082013567ffffffffffffffff811115611f7257600080fd5b611f7e84828501611d0e565b91505092915050565b600060208284031215611f9957600080fd5b6000611fa784828501611d38565b91505092915050565b611fb981612791565b82525050565b611fc8816127a3565b82525050565b6000611fd982612639565b611fe3818561264f565b9350611ff3818560208601612814565b611ffc816129e0565b840191505092915050565b600061201282612644565b61201c8185612660565b935061202c818560208601612814565b612035816129e0565b840191505092915050565b600061204b82612644565b6120558185612671565b9350612065818560208601612814565b80840191505092915050565b600061207e600983612671565b9150612089826129f1565b600982019050919050565b60006120a1603283612660565b91506120ac82612a1a565b604082019050919050565b60006120c4602583612660565b91506120cf82612a69565b604082019050919050565b60006120e7601c83612660565b91506120f282612ab8565b602082019050919050565b600061210a602483612660565b915061211582612ae1565b604082019050919050565b600061212d601983612660565b915061213882612b30565b602082019050919050565b6000612150600783612671565b915061215b82612b59565b600782019050919050565b6000612173602983612660565b915061217e82612b82565b604082019050919050565b6000612196602e83612660565b91506121a182612bd1565b604082019050919050565b60006121b9600283612671565b91506121c482612c20565b600282019050919050565b60006121dc603e83612660565b91506121e782612c49565b604082019050919050565b60006121ff602083612660565b915061220a82612c98565b602082019050919050565b6000612222604383612671565b915061222d82612cc1565b604382019050919050565b6000612245601883612660565b915061225082612d36565b602082019050919050565b6000612268602183612660565b915061227382612d5f565b604082019050919050565b600061228b601d83612671565b915061229682612dae565b601d82019050919050565b60006122ae602e83612660565b91506122b982612dd7565b604082019050919050565b6122cd816127fb565b82525050565b60006122df8284612040565b915081905092915050565b60006122f68285612040565b91506123028284612040565b91508190509392505050565b600061231982612071565b915061232482612143565b915061232f82612215565b915061233b8284612040565b9150612346826121ac565b915081905092915050565b600061235c8261227e565b91506123688284612040565b915081905092915050565b60006020820190506123886000830184611fb0565b92915050565b60006080820190506123a36000830187611fb0565b6123b06020830186611fb0565b6123bd60408301856122c4565b81810360608301526123cf8184611fce565b905095945050505050565b60006020820190506123ef6000830184611fbf565b92915050565b6000602082019050818103600083015261240f8184612007565b905092915050565b6000602082019050818103600083015261243081612094565b9050919050565b60006020820190508181036000830152612450816120b7565b9050919050565b60006020820190508181036000830152612470816120da565b9050919050565b60006020820190508181036000830152612490816120fd565b9050919050565b600060208201905081810360008301526124b081612120565b9050919050565b600060208201905081810360008301526124d081612166565b9050919050565b600060208201905081810360008301526124f081612189565b9050919050565b60006020820190508181036000830152612510816121cf565b9050919050565b60006020820190508181036000830152612530816121f2565b9050919050565b6000602082019050818103600083015261255081612238565b9050919050565b600060208201905081810360008301526125708161225b565b9050919050565b60006020820190508181036000830152612590816122a1565b9050919050565b60006020820190506125ac60008301846122c4565b92915050565b60006125bc6125cd565b90506125c88282612879565b919050565b6000604051905090565b600067ffffffffffffffff8211156125f2576125f16129b1565b5b6125fb826129e0565b9050602081019050919050565b600067ffffffffffffffff821115612623576126226129b1565b5b61262c826129e0565b9050602081019050919050565b600081519050919050565b600081519050919050565b600082825260208201905092915050565b600082825260208201905092915050565b600081905092915050565b6000612687826127fb565b9150612692836127fb565b9250827fffffffffffffffffffffffffffffffffffffffffffffffffffffffffffffffff038211156126c7576126c6612924565b5b828201905092915050565b60006126dd826127fb565b91506126e8836127fb565b9250826126f8576126f7612953565b5b828204905092915050565b600061270e826127fb565b9150612719836127fb565b9250817fffffffffffffffffffffffffffffffffffffffffffffffffffffffffffffffff048311821515161561275257612751612924565b5b828202905092915050565b6000612768826127fb565b9150612773836127fb565b92508282101561278657612785612924565b5b828203905092915050565b600061279c826127db565b9050919050565b60008115159050919050565b60007fffffffff0000000000000000000000000000000000000000000000000000000082169050919050565b600073ffffffffffffffffffffffffffffffffffffffff82169050919050565b6000819050919050565b82818337600083830152505050565b60005b83811015612832578082015181840152602081019050612817565b83811115612841576000848401525b50505050565b6000600282049050600182168061285f57607f821691505b6020821081141561287357612872612982565b5b50919050565b612882826129e0565b810181811067ffffffffffffffff821117156128a1576128a06129b1565b5b80604052505050565b60006128b5826127fb565b91507fffffffffffffffffffffffffffffffffffffffffffffffffffffffffffffffff8214156128e8576128e7612924565b5b600182019050919050565b60006128fe826127fb565b9150612909836127fb565b92508261291957612918612953565b5b828206905092915050565b7f4e487b7100000000000000000000000000000000000000000000000000000000600052601160045260246000fd5b7f4e487b7100000000000000000000000000000000000000000000000000000000600052601260045260246000fd5b7f4e487b7100000000000000000000000000000000000000000000000000000000600052602260045260246000fd5b7f4e487b7100000000000000000000000000000000000000000000000000000000600052604160045260246000fd5b6000601f19601f8301169050919050565b7f7b226e616d65223a220000000000000000000000000000000000000000000000600082015250565b7f4552433732313a207472616e7366657220746f206e6f6e20455243373231526560008201527f63656976657220696d706c656d656e7465720000000000000000000000000000602082015250565b7f4552433732313a207472616e736665722066726f6d20696e636f72726563742060008201527f6f776e6572000000000000000000000000000000000000000000000000000000602082015250565b7f4552433732313a20746f6b656e20616c7265616479206d696e74656400000000600082015250565b7f4552433732313a207472616e7366657220746f20746865207a65726f2061646460008201527f7265737300000000000000000000000000000000000000000000000000000000602082015250565b7f4552433732313a20617070726f766520746f2063616c6c657200000000000000600082015250565b7f535647204e465400000000000000000000000000000000000000000000000000600082015250565b7f4552433732313a2061646472657373207a65726f206973206e6f74206120766160008201527f6c6964206f776e65720000000000000000000000000000000000000000000000602082015250565b7f45524337323155524953746f726167653a2055524920736574206f66206e6f6e60008201527f6578697374656e7420746f6b656e000000000000000000000000000000000000602082015250565b7f227d000000000000000000000000000000000000000000000000000000000000600082015250565b7f4552433732313a20617070726f76652063616c6c6572206973206e6f7420746f60008201527f6b656e206f776e6572206e6f7220617070726f76656420666f7220616c6c0000602082015250565b7f4552433732313a206d696e7420746f20746865207a65726f2061646472657373600082015250565b7f222c20226465736372697074696f6e223a22416e204e4654206261736564206f60008201527f6e2053564721222c202261747472696275746573223a22222c2022696d61676560208201527f223a220000000000000000000000000000000000000000000000000000000000604082015250565b7f4552433732313a20696e76616c696420746f6b656e2049440000000000000000600082015250565b7f4552433732313a20617070726f76616c20746f2063757272656e74206f776e6560008201527f7200000000000000000000000000000000000000000000000000000000000000602082015250565b7f646174613a6170706c69636174696f6e2f6a736f6e3b6261736536342c000000600082015250565b7f4552433732313a2063616c6c6572206973206e6f7420746f6b656e206f776e6560008201527f72206e6f7220617070726f766564000000000000000000000000000000000000602082015250565b612e2f81612791565b8114612e3a57600080fd5b50565b612e46816127a3565b8114612e5157600080fd5b50565b612e5d816127af565b8114612e6857600080fd5b50565b612e74816127fb565b8114612e7f57600080fd5b5056fe4142434445464748494a4b4c4d4e4f505152535455565758595a6162636465666768696a6b6c6d6e6f707172737475767778797a303132333435363738392b2fa2646970667358221220786e83fcb47d7f1af50fec9571531f6a49179677a9a58b8eb4647dbbc6948fe964736f6c63430008010033",
  "devdoc": {
    "kind": "dev",
    "methods": {
      "approve(address,uint256)": {
        "details": "See {IERC721-approve}."
      },
      "balanceOf(address)": {
        "details": "See {IERC721-balanceOf}."
      },
      "getApproved(uint256)": {
        "details": "See {IERC721-getApproved}."
      },
      "isApprovedForAll(address,address)": {
        "details": "See {IERC721-isApprovedForAll}."
      },
      "name()": {
        "details": "See {IERC721Metadata-name}."
      },
      "ownerOf(uint256)": {
        "details": "See {IERC721-ownerOf}."
      },
      "safeTransferFrom(address,address,uint256)": {
        "details": "See {IERC721-safeTransferFrom}."
      },
      "safeTransferFrom(address,address,uint256,bytes)": {
        "details": "See {IERC721-safeTransferFrom}."
      },
      "setApprovalForAll(address,bool)": {
        "details": "See {IERC721-setApprovalForAll}."
      },
      "supportsInterface(bytes4)": {
        "details": "See {IERC165-supportsInterface}."
      },
      "symbol()": {
        "details": "See {IERC721Metadata-symbol}."
      },
      "tokenURI(uint256)": {
        "details": "See {IERC721Metadata-tokenURI}."
      },
      "transferFrom(address,address,uint256)": {
        "details": "See {IERC721-transferFrom}."
      }
    },
    "version": 1
  },
  "userdoc": {
    "kind": "user",
    "methods": {},
    "version": 1
  },
  "storageLayout": {
    "storage": [
      {
        "astId": 25,
        "contract": "contracts/SVGNFT.sol:SVGNFT",
        "label": "_name",
        "offset": 0,
        "slot": "0",
        "type": "t_string_storage"
      },
      {
        "astId": 27,
        "contract": "contracts/SVGNFT.sol:SVGNFT",
        "label": "_symbol",
        "offset": 0,
        "slot": "1",
        "type": "t_string_storage"
      },
      {
        "astId": 31,
        "contract": "contracts/SVGNFT.sol:SVGNFT",
        "label": "_owners",
        "offset": 0,
        "slot": "2",
        "type": "t_mapping(t_uint256,t_address)"
      },
      {
        "astId": 35,
        "contract": "contracts/SVGNFT.sol:SVGNFT",
        "label": "_balances",
        "offset": 0,
        "slot": "3",
        "type": "t_mapping(t_address,t_uint256)"
      },
      {
        "astId": 39,
        "contract": "contracts/SVGNFT.sol:SVGNFT",
        "label": "_tokenApprovals",
        "offset": 0,
        "slot": "4",
        "type": "t_mapping(t_uint256,t_address)"
      },
      {
        "astId": 45,
        "contract": "contracts/SVGNFT.sol:SVGNFT",
        "label": "_operatorApprovals",
        "offset": 0,
        "slot": "5",
        "type": "t_mapping(t_address,t_mapping(t_address,t_bool))"
      },
      {
        "astId": 1013,
        "contract": "contracts/SVGNFT.sol:SVGNFT",
        "label": "_tokenURIs",
        "offset": 0,
        "slot": "6",
        "type": "t_mapping(t_uint256,t_string_storage)"
      },
      {
        "astId": 1855,
        "contract": "contracts/SVGNFT.sol:SVGNFT",
        "label": "tokenCounter",
        "offset": 0,
        "slot": "7",
        "type": "t_uint256"
      }
    ],
    "types": {
      "t_address": {
        "encoding": "inplace",
        "label": "address",
        "numberOfBytes": "20"
      },
      "t_bool": {
        "encoding": "inplace",
        "label": "bool",
        "numberOfBytes": "1"
      },
      "t_mapping(t_address,t_bool)": {
        "encoding": "mapping",
        "key": "t_address",
        "label": "mapping(address => bool)",
        "numberOfBytes": "32",
        "value": "t_bool"
      },
      "t_mapping(t_address,t_mapping(t_address,t_bool))": {
        "encoding": "mapping",
        "key": "t_address",
        "label": "mapping(address => mapping(address => bool))",
        "numberOfBytes": "32",
        "value": "t_mapping(t_address,t_bool)"
      },
      "t_mapping(t_address,t_uint256)": {
        "encoding": "mapping",
        "key": "t_address",
        "label": "mapping(address => uint256)",
        "numberOfBytes": "32",
        "value": "t_uint256"
      },
      "t_mapping(t_uint256,t_address)": {
        "encoding": "mapping",
        "key": "t_uint256",
        "label": "mapping(uint256 => address)",
        "numberOfBytes": "32",
        "value": "t_address"
      },
      "t_mapping(t_uint256,t_string_storage)": {
        "encoding": "mapping",
        "key": "t_uint256",
        "label": "mapping(uint256 => string)",
        "numberOfBytes": "32",
        "value": "t_string_storage"
      },
      "t_string_storage": {
        "encoding": "bytes",
        "label": "string",
        "numberOfBytes": "32"
      },
      "t_uint256": {
        "encoding": "inplace",
        "label": "uint256",
        "numberOfBytes": "32"
      }
    }
  }
}